{
  "transactions": [
    {
      "hash": "0xdb697c343dc9644b2d3083d82544d2f2460130c1baca1a1a9ed0453c642c07d5",
      "transactionType": "CALL",
      "contractName": null,
      "contractAddress": "0xaaf6a734114437b719c28cfd44c0b2b515ed29be",
      "function": "mint(address,uint256)",
      "arguments": [
        "0xE3Fe7359271b4eFa7Efd38c0051f1ee7Eb6a6b0E",
        "100000000000000000000"
      ],
      "transaction": {
        "from": "0x5cdc9010d01d6744dd9213a0e28aa780210ec544",
        "to": "0xaaf6a734114437b719c28cfd44c0b2b515ed29be",
        "gas": "0x114f7",
        "value": "0x0",
        "input": "0x40c10f19000000000000000000000000e3fe7359271b4efa7efd38c0051f1ee7eb6a6b0e0000000000000000000000000000000000000000000000056bc75e2d63100000",
        "nonce": "0x4",
        "chainId": "0x14a34"
      },
      "additionalContracts": [],
      "isFixedGasLimit": false
    }
  ],
  "receipts": [
    {
      "status": "0x1",
      "cumulativeGasUsed": "0x2e627a",
      "logs": [
        {
          "address": "0xaaf6a734114437b719c28cfd44c0b2b515ed29be",
          "topics": [
            "0xddf252ad1be2c89b69c2b068fc378daa952ba7f163c4a11628f55a4df523b3ef",
            "0x0000000000000000000000000000000000000000000000000000000000000000",
            "0x000000000000000000000000e3fe7359271b4efa7efd38c0051f1ee7eb6a6b0e"
          ],
          "data": "0x0000000000000000000000000000000000000000000000056bc75e2d63100000",
          "blockHash": "0xbd740919b45338b598d8dd09b1d1dd88c7c6d4f1f15a6934ed72ae24d112ade6",
          "blockNumber": "0xdaef75",
          "transactionHash": "0xdb697c343dc9644b2d3083d82544d2f2460130c1baca1a1a9ed0453c642c07d5",
          "transactionIndex": "0x11",
          "logIndex": "0x45",
          "removed": false
        }
      ],
      "logsBloom": "0x00000000000000000000000000000000000000000020000000000000000000000000000000000000000000000000000000000000000000000000000000000000000000000000000000000008000000000000000000000000000000000000000000000004020000000000000000000800000000000000001000000010000000000000000000000000000000000000000000000000000000000000000000000008000000000000000000000000000000000000000020000000000000000000000000000002000000000000000000000000000000000000000000000000000020000000800000000000000000000000000000000000000000000000000000000000",
      "type": "0x2",
      "transactionHash": "0xdb697c343dc9644b2d3083d82544d2f2460130c1baca1a1a9ed0453c642c07d5",
      "transactionIndex": "0x11",
      "blockHash": "0xbd740919b45338b598d8dd09b1d1dd88c7c6d4f1f15a6934ed72ae24d112ade6",
      "blockNumber": "0xdaef75",
      "gasUsed": "0xc885",
      "effectiveGasPrice": "0x10073f",
      "from": "0x5cdc9010d01d6744dd9213a0e28aa780210ec544",
      "to": "0xaaf6a734114437b719c28cfd44c0b2b515ed29be",
      "contractAddress": null,
      "l1BaseFeeScalar": "0x44d",
      "l1BlobBaseFee": "0xbb539dca",
      "l1BlobBaseFeeScalar": "0xa118b",
      "l1Fee": "0x305ad28376",
      "l1GasPrice": "0xa3ff662",
      "l1GasUsed": "0x640"
    }
  ],
  "libraries": [],
  "pending": [],
  "returns": {},
  "timestamp": 1724464583,
  "chain": 84532,
  "commit": "7667421"
}