{
  "transactions": [
    {
      "hash": "0xe052baa04157faa508dd0e0abf8e347d0ca97e80556412b0b750dee38723dff9",
      "transactionType": "CALL",
      "contractName": null,
      "contractAddress": "0xaaf6a734114437b719c28cfd44c0b2b515ed29be",
      "function": "mint(address,uint256)",
      "arguments": [
        "0xE3Fe7359271b4eFa7Efd38c0051f1ee7Eb6a6b0E",
        "100000000000000000000"
      ],
      "transaction": {
        "from": "0x5cdc9010d01d6744dd9213a0e28aa780210ec544",
        "to": "0xaaf6a734114437b719c28cfd44c0b2b515ed29be",
        "gas": "0xc391",
        "value": "0x0",
        "input": "0x40c10f19000000000000000000000000e3fe7359271b4efa7efd38c0051f1ee7eb6a6b0e0000000000000000000000000000000000000000000000056bc75e2d63100000",
        "nonce": "0x5",
        "chainId": "0x14a34"
      },
      "additionalContracts": [],
      "isFixedGasLimit": false
    }
  ],
  "receipts": [
    {
      "status": "0x1",
      "cumulativeGasUsed": "0x1b2a8b",
      "logs": [
        {
          "address": "0xaaf6a734114437b719c28cfd44c0b2b515ed29be",
          "topics": [
            "0xddf252ad1be2c89b69c2b068fc378daa952ba7f163c4a11628f55a4df523b3ef",
            "0x0000000000000000000000000000000000000000000000000000000000000000",
            "0x000000000000000000000000e3fe7359271b4efa7efd38c0051f1ee7eb6a6b0e"
          ],
          "data": "0x0000000000000000000000000000000000000000000000056bc75e2d63100000",
          "blockHash": "0xfeed344885695d1c1ee510897897d93d3989f236044e255d532f3547ad94c9a8",
          "blockNumber": "0xdb57c8",
          "transactionHash": "0xe052baa04157faa508dd0e0abf8e347d0ca97e80556412b0b750dee38723dff9",
          "transactionIndex": "0x4",
          "logIndex": "0x33",
          "removed": false
        }
      ],
      "logsBloom": "0x00000000000000000000000000000000000000000020000000000000000000000000000000000000000000000000000000000000000000000000000000000000000000000000000000000008000000000000000000000000000000000000000000000004020000000000000000000800000000000000001000000010000000000000000000000000000000000000000000000000000000000000000000000008000000000000000000000000000000000000000020000000000000000000000000000002000000000000000000000000000000000000000000000000000020000000800000000000000000000000000000000000000000000000000000000000",
      "type": "0x2",
      "transactionHash": "0xe052baa04157faa508dd0e0abf8e347d0ca97e80556412b0b750dee38723dff9",
      "transactionIndex": "0x4",
      "blockHash": "0xfeed344885695d1c1ee510897897d93d3989f236044e255d532f3547ad94c9a8",
      "blockNumber": "0xdb57c8",
      "gasUsed": "0x85b9",
      "effectiveGasPrice": "0xfda66",
      "from": "0x5cdc9010d01d6744dd9213a0e28aa780210ec544",
      "to": "0xaaf6a734114437b719c28cfd44c0b2b515ed29be",
      "contractAddress": null,
      "l1BaseFeeScalar": "0x44d",
      "l1BlobBaseFee": "0x458b2acd91",
      "l1BlobBaseFeeScalar": "0xa118b",
      "l1Fee": "0x11f56e30ad42",
      "l1GasPrice": "0x4dff8104d",
      "l1GasUsed": "0x640"
    }
  ],
  "libraries": [],
  "pending": [],
  "returns": {},
  "timestamp": 1724518002,
  "chain": 84532,
  "commit": "9dfdb84"
}