{
  "transactions": [
    {
      "hash": "0x27c97dc7338eb45fdba6b36ed032d2c965d21b814f2583078d87fc95d3391488",
      "transactionType": "CALL",
      "contractName": null,
      "contractAddress": "0xaaf6a734114437b719c28cfd44c0b2b515ed29be",
      "function": "mint(address,uint256)",
      "arguments": [
        "0x5162Fa0091405C957C83ceBa659EbE256dBC111b",
        "100000000000000000000"
      ],
      "transaction": {
        "from": "0x5cdc9010d01d6744dd9213a0e28aa780210ec544",
        "to": "0xaaf6a734114437b719c28cfd44c0b2b515ed29be",
        "gas": "0xb8a2",
        "value": "0x0",
        "input": "0x40c10f190000000000000000000000005162fa0091405c957c83ceba659ebe256dbc111b0000000000000000000000000000000000000000000000056bc75e2d63100000",
        "nonce": "0x6",
        "chainId": "0x14a34"
      },
      "additionalContracts": [],
      "isFixedGasLimit": false
    }
  ],
  "receipts": [
    {
      "status": "0x1",
      "cumulativeGasUsed": "0x7ba04",
      "logs": [
        {
          "address": "0xaaf6a734114437b719c28cfd44c0b2b515ed29be",
          "topics": [
            "0xddf252ad1be2c89b69c2b068fc378daa952ba7f163c4a11628f55a4df523b3ef",
            "0x0000000000000000000000000000000000000000000000000000000000000000",
            "0x0000000000000000000000005162fa0091405c957c83ceba659ebe256dbc111b"
          ],
          "data": "0x0000000000000000000000000000000000000000000000056bc75e2d63100000",
          "blockHash": "0x3cca94da3059876b96984cb8c2815aa3779da0c77b43aacb2822f69101c95bfe",
          "blockNumber": "0xdb57eb",
          "transactionHash": "0x27c97dc7338eb45fdba6b36ed032d2c965d21b814f2583078d87fc95d3391488",
          "transactionIndex": "0x2",
          "logIndex": "0x6",
          "removed": false
        }
      ],
      "logsBloom": "0x00000000080000000000000000000000000000000000000000000000000000000000000000000000000000000000000000000000000100000000000000000000000000000000000000000008000000000000000000000000000000000000000000000000020000000000000000000800000000000000001000000010000000000000000000000000000000000000000000000000000000000000000000000008000000000000000000000000000000000000000020000000000200000000000000000002000000000000000000000000000000000000000000000000000020000000000000000000000000000000000000000000000000000000000000000000",
      "type": "0x2",
      "transactionHash": "0x27c97dc7338eb45fdba6b36ed032d2c965d21b814f2583078d87fc95d3391488",
      "transactionIndex": "0x2",
      "blockHash": "0x3cca94da3059876b96984cb8c2815aa3779da0c77b43aacb2822f69101c95bfe",
      "blockNumber": "0xdb57eb",
      "gasUsed": "0x85ad",
      "effectiveGasPrice": "0x10cb30",
      "from": "0x5cdc9010d01d6744dd9213a0e28aa780210ec544",
      "to": "0xaaf6a734114437b719c28cfd44c0b2b515ed29be",
      "contractAddress": null,
      "l1BaseFeeScalar": "0x44d",
      "l1BlobBaseFee": "0x34d520ab4b",
      "l1BlobBaseFeeScalar": "0xa118b",
      "l1Fee": "0xda6ca5c8395",
      "l1GasPrice": "0x4e63c94f1",
      "l1GasUsed": "0x640"
    }
  ],
  "libraries": [],
  "pending": [],
  "returns": {},
  "timestamp": 1724518071,
  "chain": 84532,
  "commit": "9dfdb84"
}