{
  "transactions": [
    {
      "hash": "0x322312bf89a10c4296a7a927c4496c99e77fc5666ffafb8a712295fca9f299b2",
      "transactionType": "CALL",
      "contractName": null,
      "contractAddress": "0xaa3fdeb44b7bb1c0a366685c0a10b1a2aea6548c",
      "function": "mint(address,uint256)",
      "arguments": [
        "0xE3Fe7359271b4eFa7Efd38c0051f1ee7Eb6a6b0E",
        "100000000000000000000"
      ],
      "transaction": {
        "from": "0x5cdc9010d01d6744dd9213a0e28aa780210ec544",
        "to": "0xaa3fdeb44b7bb1c0a366685c0a10b1a2aea6548c",
        "gas": "0x114f7",
        "value": "0x0",
        "input": "0x40c10f19000000000000000000000000e3fe7359271b4efa7efd38c0051f1ee7eb6a6b0e0000000000000000000000000000000000000000000000056bc75e2d63100000",
        "nonce": "0x3",
        "chainId": "0xe705"
      },
      "additionalContracts": [],
      "isFixedGasLimit": false
    }
  ],
  "receipts": [
    {
      "status": "0x1",
      "cumulativeGasUsed": "0xc885",
      "logs": [
        {
          "address": "0xaa3fdeb44b7bb1c0a366685c0a10b1a2aea6548c",
          "topics": [
            "0xddf252ad1be2c89b69c2b068fc378daa952ba7f163c4a11628f55a4df523b3ef",
            "0x0000000000000000000000000000000000000000000000000000000000000000",
            "0x000000000000000000000000e3fe7359271b4efa7efd38c0051f1ee7eb6a6b0e"
          ],
          "data": "0x0000000000000000000000000000000000000000000000056bc75e2d63100000",
          "blockHash": "0x1423094afd1f6d978d470d2d89c5ca8ef62a7dbed20b5a1cfa4ffeefda777e6d",
          "blockNumber": "0x37505b",
          "transactionHash": "0x322312bf89a10c4296a7a927c4496c99e77fc5666ffafb8a712295fca9f299b2",
          "transactionIndex": "0x0",
          "logIndex": "0x0",
          "removed": false
        }
      ],
      "logsBloom": "0x00000000000000000000000000000000000000001020000000000000000000000000000000000000000000000000000000000000000000000000000000000000000000000000000000000008000000000000000000000000000000000000000000000004020000000000000000000800000000000000000000000010000000000000000000000000400000000000000000000000000000000000000000000000000000000000000000000000000000000000000000000000000000000000000000000002000000000000000000000000000000000000000000000000000020000000800000000000080000000000000000000000000000000000000000000000",
      "type": "0x2",
      "transactionHash": "0x322312bf89a10c4296a7a927c4496c99e77fc5666ffafb8a712295fca9f299b2",
      "transactionIndex": "0x0",
      "blockHash": "0x1423094afd1f6d978d470d2d89c5ca8ef62a7dbed20b5a1cfa4ffeefda777e6d",
      "blockNumber": "0x37505b",
      "gasUsed": "0xc885",
      "effectiveGasPrice": "0x38fba4097",
      "from": "0x5cdc9010d01d6744dd9213a0e28aa780210ec544",
      "to": "0xaa3fdeb44b7bb1c0a366685c0a10b1a2aea6548c",
      "contractAddress": null
    }
  ],
  "libraries": [],
  "pending": [],
  "returns": {},
  "timestamp": 1724518397,
  "chain": 59141,
  "commit": "9dfdb84"
}