{
  "transactions": [
    {
      "hash": "0x20aa8e367450a42c79e87e6d823d825ecd688281afea552be036c0927d88c46f",
      "transactionType": "CALL",
      "contractName": null,
      "contractAddress": "0xaa3fdeb44b7bb1c0a366685c0a10b1a2aea6548c",
      "function": "mint(address,uint256)",
      "arguments": [
        "0x5162Fa0091405C957C83ceBa659EbE256dBC111b",
        "100000000000000000000"
      ],
      "transaction": {
        "from": "0x5cdc9010d01d6744dd9213a0e28aa780210ec544",
        "to": "0xaa3fdeb44b7bb1c0a366685c0a10b1a2aea6548c",
        "gas": "0x1712a",
        "value": "0x0",
        "input": "0x40c10f190000000000000000000000005162fa0091405c957c83ceba659ebe256dbc111b0000000000000000000000000000000000000000000000056bc75e2d63100000",
        "nonce": "0x2",
        "chainId": "0xe705"
      },
      "additionalContracts": [],
      "isFixedGasLimit": false
    }
  ],
  "receipts": [
    {
      "status": "0x1",
      "cumulativeGasUsed": "0x10b45",
      "logs": [
        {
          "address": "0xaa3fdeb44b7bb1c0a366685c0a10b1a2aea6548c",
          "topics": [
            "0xddf252ad1be2c89b69c2b068fc378daa952ba7f163c4a11628f55a4df523b3ef",
            "0x0000000000000000000000000000000000000000000000000000000000000000",
            "0x0000000000000000000000005162fa0091405c957c83ceba659ebe256dbc111b"
          ],
          "data": "0x0000000000000000000000000000000000000000000000056bc75e2d63100000",
          "blockHash": "0xc9695a6ebb3d852e9c5a9fafe2caf1a7f6e44229a502f68af5b44c8e2f4e61c4",
          "blockNumber": "0x375059",
          "transactionHash": "0x20aa8e367450a42c79e87e6d823d825ecd688281afea552be036c0927d88c46f",
          "transactionIndex": "0x0",
          "logIndex": "0x0",
          "removed": false
        }
      ],
      "logsBloom": "0x00000000080000000000000000000000000000001000000000000000000000000000000000000000000000000000000000000000000100000000000000000000000000000000000000000008000000000000000000000000000000000000000000000000020000000000000000000800000000000000000000000010000000000000000000000000400000000000000000000000000000000000000000000000000000000000000000000000000000000000000000000000000200000000000000000002000000000000000000000000000000000000000000000000000020000000000000000000080000000000000000000000000000000000000000000000",
      "type": "0x2",
      "transactionHash": "0x20aa8e367450a42c79e87e6d823d825ecd688281afea552be036c0927d88c46f",
      "transactionIndex": "0x0",
      "blockHash": "0xc9695a6ebb3d852e9c5a9fafe2caf1a7f6e44229a502f68af5b44c8e2f4e61c4",
      "blockNumber": "0x375059",
      "gasUsed": "0x10b45",
      "effectiveGasPrice": "0x38fba4097",
      "from": "0x5cdc9010d01d6744dd9213a0e28aa780210ec544",
      "to": "0xaa3fdeb44b7bb1c0a366685c0a10b1a2aea6548c",
      "contractAddress": null
    }
  ],
  "libraries": [],
  "pending": [],
  "returns": {},
  "timestamp": 1724518369,
  "chain": 59141,
  "commit": "9dfdb84"
}